{
  "contractName": "AccessControlled",
  "abi": [
    {
      "constant": true,
      "inputs": [],
      "name": "isVoting",
      "outputs": [
        {
          "name": "",
          "type": "bool"
        }
      ],
      "payable": false,
      "stateMutability": "view",
      "type": "function"
    },
    {
      "inputs": [
        {
          "name": "_owner",
          "type": "address"
        },
        {
          "name": "_isVoting",
          "type": "bool"
        }
      ],
      "payable": false,
      "stateMutability": "nonpayable",
      "type": "constructor"
    }
  ],
  "bytecode": "0x608060405234801561001057600080fd5b5060405161014d38038061014d8339818101604052604081101561003357600080fd5b81019080805190602001909291908051906020019092919050505080600060146101000a81548160ff021916908315150217905550816000806101000a81548173ffffffffffffffffffffffffffffffffffffffff021916908373ffffffffffffffffffffffffffffffffffffffff16021790555050506095806100b86000396000f3fe6080604052348015600f57600080fd5b506004361060285760003560e01c80631bbef39914602d575b600080fd5b6033604d565b604051808215151515815260200191505060405180910390f35b600060149054906101000a900460ff168156fea265627a7a723058206237db579944847b51b418fa3171f0374a84e82835f609448cef7d765e553f8e64736f6c63430005090032",
  "source": "pragma solidity ^0.5.9;\n\ncontract AccessControlled {\n\n    // Define state variables for the owner and the voting status flag\n    address owner;\n    bool public isVoting;\n\n    constructor(address _owner, bool _isVoting) public {\n        isVoting = _isVoting;\n        owner = _owner;\n    }\n\n    // We define the modifiers used as part of our functions here.\n    modifier onlyOwner {\n        require(msg.sender == owner, \"Only the contract owner can perform this operation\");\n        _;\n    }\n\n    modifier voteClosed {\n        require(!isVoting, \"Voting is currently open. Wait for it to be closed.\");\n        _;\n    }\n\n} \n",
  "sourcePath": "/home/ubuntu/trufflepro/contracts/AccessControlled.sol",
  "compiler": {
    "name": "solc",
    "version": "0.5.9+commit.e560f70d.Emscripten.clang"
  },
  "schemaVersion": "3.2.0",
  "updatedAt": "2020-06-16T15:22:38.176Z",
  "devdoc": {
    "methods": {}
  },
  "userdoc": {
    "methods": {}
  }
}